S00D000064647335612E7372656346
S11300000C9434000C9451000C9451000C94510045
S11300100C9451000C9451000C9451000C94510018
S11300200C9451000C9451000C9451000C94CC038A
S11300300C9451000C9451000C9451000C945100F8
S11300400C9451000C9451000C9451000C945100E8
S11300500C9451000C9451000C9451000C945100D8
S11300600C9451000C94510011241FBECFEFD8E022
S1130070DEBFCDBF12E0A0E0B1E0E0E6FBE202C0EB
S113008005900D92A63FB107D9F723E0A6EFB2E0A1
S113009001C01D92AC33B207E1F70E94ED090C9444
S11300A0AE150C94000000000000000000000000E9
S11300B0000000000000000000000000000000003C
S11300C0000000000000000000000000000000002C
S11300D0000000000000000000000000000000001C
S11300E0000000000000000000000000000000000C
S11300F000000000000000000000000000000000FC
S113010000000000000000000000000000000000EB
S113011000000000000000000000000000000000DB
S113012000000000000000000000000000000000CB
S113013000000000000000000000000000000000BB
S113014000000000000000000000000000000000AB
S1130150000000000000000000000000000000009B
S1130160000000000000000000000000000000008B
S1130170000000000000000000000000000000007B
S1130180000000000000000000000000000000006B
S1130190000000000000000000000000000000005B
S11301A0000000000000000000000000000000004B
S11301B0000000000000000000000000000000003B
S11301C0000000000000000000000000000000002B
S11301D0000000000000000000000000000000001B
S11301E0000000000000000000000000000000000B
S11301F000000000000000000000000000000000FB
S113020000000000000000000000000000000000EA
S113021000000000000000000000000000000000DA
S113022000000000000000000000000000000000CA
S1130230000000080808080808000800000000146E
S113024014140000000000000000000014143E1408
S11302503E14140000000000083C0A1C281E08007C
S113026000000000062610080432300000000000E0
S11302701C0202042A122C000000001808040000CA
S113028000000000000020101008080808081010E2
S113029020000204040808080808040402000000FE
S11302A000082A1C2A080000000000000008083E7C
S11302B008080000000000000000000000181808F2
S11302C0040000000000003E0000000000000000E8
S11302D0000000000018180000002020101008087A
S11302E0040402020000001C22322A2622221C00DE
S11302F0000000080C080808080808000000001C9A
S11303002220100804023E000000001C22201820B5
S113031020221C0000000010181814143E1038008D
S11303200000003E02021E2020221C0000000018D3
S113033004021E2222221C000000003E2220201063
S1130340100808000000001C22221C2222221C008B
S11303500000001C2222223C20100C00000000009F
S113036000181800001818000000000000181800F9
S1130370001818080400000000300C030C300000C2
S11303800000000000003E003E00000000000000ED
S113039000030C300C0300000000001C2220100895
S11303A008000800000000001C223A3A1A021C004F
S11303B000000000081422223E2222000000000057
S11303C01E22221E22221E00000000001C22020205
S11303D002221C00000000000E12222222120E0033
S11303E0000000003E02021E02023E000000000067
S11303F03E02021E02020200000000001C22023221
S113040022223C00000000002222223E222222005E
S1130410000000003E08080808083E000000000034
S11304203820202022221C000000000022120A068C
S11304300A122200000000000202020202023E0030
S11304400000000022362A2A222222000000000096
S11304502226262A32322200000000001C222222F8
S113046022221C00000000001E22221E02020200A2
S1130470000000001C22222222221C300000000066
S11304801E22221E0A122200000000001C22021C4E
S113049020221C00000000003E080808080808008C
S11304A0000000002222222222221C000000000060
S11304B02222221414080800000000002222222A0A
S11304C02A362200000000002222140814222200EE
S11304D000000000222214080808080000000000A0
S11304E03E20100804023E000000380808080808EE
S11304F00808080838000202040408081010202024
S113050000000E0808080808080808080E0000087B
S113051014220000000000000000000000000000A1
S11305200000003F0000000C081000000000000064
S11305300000000000003C2222322C0000000002D7
S113054002021E2222221E000000000000003C02C3
S113055002023C000000002020203C2222223C0019
S11305600000000000001C223E021C0000000038B5
S113057004041E04040404000000000000003C22E3
S113058022223C20201C000202021E2222222200DF
S11305900000000808000C0808081C0000000010F7
S11305A010001C1010101010100E00020202120A8B
S11305B0060A12000000000C0808080808081C00BD
S11305C0000000000000162A2A2A22000000000071
S11305D000001A26222222000000000000001C2233
S11305E022221C000000000000001E2222221E0203
S11305F00202000000003C2222223C2020200000B5
S113060000001A06020202000000000000003C0282
S11306101C201E000000000808083E0808083000DE
S1130620000000000000222222322C000000000002
S11306300000361414080800000000000000222AFC
S11306402A2A1400000000000000221408142200CA
S1130650000000000000222222223C20201C000076
S113066000003E1008043E00000020101010100886
S113067010101010200008080808080808080808C6
S1130680080002040404040804040404020000042E
S11306902A100000000000000000000000080814F8
S11306A014223E000000CF93DF939CE0899FE3E592
S11306B0F0E0EE0FFF1FE00DF11D8CE0EB019591D2
S11306C099938A95E1F71124DF91CF9108950F93BF
S11306D01F93CF93DF938091230390912403A091E0
S11306E02503B09126030196A11DB11D8093230318
S11306F090932403A0932503B093260380911F03B2
S113070090912003A0912103B0912203892B8A2B7D
S11307108B2BC1F180911F0390912003A0912103A1
S1130720B09122030197A109B10980931F0390930B
S11307302003A0932103B093220324C089919991AB
S1130740009739F0DC01ED91FC910190F081E02DEE
S11307500995C017D10791F7C6EFD2E00EEF12E06A
S113076088819981009749F0DC01ED91FC91019019
S1130770F081E02D09951982188222960C171D0725
S113078079F705C0CEEFD2E00EE113E0D7CFDF91C9
S1130790CF911F910F9108951F920F920FB60F9250
S11307A011242F933F934F935F936F937F938F9372
S11307B09F93AF93BF93EF93FF930E946703FF91BF
S11307C0EF91BF91AF919F918F917F916F915F91C5
S11307D04F913F912F910F900FBE0F901F9018953E
S11307E060931F037093200380932103909322034B
S11307F080911F0390912003A0912103B0912203C3
S1130800892B8A2B8B2BA1F708952091FE0230911E
S1130810FF02232B49F0E0E0F3E021E030E04191D6
S11308205191452B61F402C020E030E0220F331FC8
S1130830F901E250FD4F9183808381E008952F5F99
S11308403F4F2031310559F780E00895F894109214
S113085080008AE0809381001092820010928500CB
S11308601092840080E29EE4909389008093880033
S113087082E080936F00109223031092240310925D
S113088025031092260310921E03EEEFF2E08EE190
S113089093E011921192E817F907D9F7E6EFF2E025
S11308A086E193E011921192E817F907D9F7789449
S11308B008950197F0F70895CF93DF931F92CDB772
S11308C0DEB784B18983898187608983898184B90A
S11308D085B189838981887F8983898185B9898163
S11308E082608983898185B989818D7F89838981A2
S11308F085B90F90DF91CF910895CF93F894C5B146
S1130900C87FC5B92FE530E749E052E40E9478106A
S11309100E94E30FAB01BC0120E230E040FF03C0C2
S11309208C2F846002C08C2F8B7F85B9982F9160A7
S113093095B9C82FCE7FC5B97695679557954795D4
S11309402150310959F78A7F85B928E030E001C088
S1130950892F982F916095B9982F9E7F95B9215032
S11309603109B1F7926095B98C7F85B97894CF91AC
S11309700895FC0183818F5F83839481891720F01C
S1130980138282818F5F828308952BE332E0FC011E
S1130990318320831282648313820E9405040895A4
S11309A0FC012281222319F0128281E0089580E063
S11309B00895DF92EF92FF920F931F93CF93DF93EB
S11309C0EC01D62EE42EF22E81E492E09983888302
S11309D08BE090E00E9461118C014F2D6D2D0E94DF
S11309E0BC0C1B830A838BE090E00E9461118C0194
S11309F04F2D6E2D0E94BC0C1D830C838A819B811C
S1130A000E942B0D882381F08C819D810E942B0DE7
S1130A10882329F082E090E09F838E8312C081E0D6
S1130A2090E09F838E830DC08C819D810E942B0D4D
S1130A30882329F084E090E09F838E8302C01F8284
S1130A401E821886CE010E9405041A8619861C8609
S1130A501B86DF91CF911F910F91FF90EF90DF9054
S1130A600895CF93DF93EC018A819B810E941D0D31
S1130A70811107C08C819D810E941D0D882309F47A
S1130A806BC08A819B810E94250D823039F48C8150
S1130A909D810E942B0D811147C052C08C819D8184
S1130AA00E94250D823039F48A819B810E942B0D8E
S1130AB0811146C039C08A819B810E94250D8130F5
S1130AC039F48C819D810E942B0D811139C02CC079
S1130AD08C819D810E94250D813039F48A819B810E
S1130AE00E942B0D811120C02BC08A819B810E9402
S1130AF0280D8C819D810E94280D2EC089859A85A0
S1130B0001969A87898728C01A86198681E0888782
S1130B1023C08B859C8501969C878B871DC01C8672
S1130B201B8682E0888718C08A819B810E94280DD9
S1130B308C819D810E94280D8885823081F7E9CFC0
S1130B408A819B810E94280D8C819D810E94280DA1
S1130B5088858130C9F6D2CFDF91CF9108950E9464
S1130B603105089521E0FC018085811101C020E058
S1130B70822F0895FC0180850895FC011086089554
S1130B80FC0181859285128611860895FC01838576
S1130B9094851486138608956F927F928F929F9204
S1130BA0AF92BF92CF92EF92FF920F931F93CF9386
S1130BB0DF93CDB7DEB7EC970FB6F894DEBF0FBE68
S1130BC0CDBF962E142FF8941D862E871F86215F85
S1130BD0288B8AE20E949C0664E0CE010D960E9456
S1130BE0AE060E94D2061D861E871F86195E188BCC
S1130BF08BE20E949C0664E0CE010D960E94AE0634
S1130C000E94D206BE016F5F7F4F892D0E9453035D
S1130C108CE20E949C06612C712C4E018DE3880E9F
S1130C20911CC30177200CF4019695958795E1E01A
S1130C30F0E0EC0FFD1FE80FF91F8081FE013D96E7
S1130C4080FF07C0E082F1820283E382F48205839D
S1130C5006C0A082B182C282A382B482C582869574
S1130C603696E815F90561F760E3CE010D960E940A
S1130C70AE068FEF681A780A88E16816710489F65F
S1130C800E94D2067894EC960FB6F894DEBF0FBE9D
S1130C90CDBFDF91CF911F910F91FF90EF90CF9037
S1130CA0BF90AF909F908F907F906F900895CF9357
S1130CB0DF931F92CDB7DEB78BB1898389818F7D96
S1130CC0898389818BB980EA90E00E9459048981E3
S1130CD08062898389818BB96DE070E080E090E067
S1130CE00E94F0030F90DF91CF910895CF93DF938B
S1130CF000D0CDB7DEB79BB1998399819A8328E060
S1130D0030E0882324F49A8198609A8303C09A81FE
S1130D10977F9A839A819BB99A8194609BB99A81AF
S1130D209BB9880F2150310961F789818BB90F90E4
S1130D300F90DF91CF910895CF93DF931F92CDB79A
S1130D40DEB79BB1998399819F7A998399819BB9E5
S1130D500E9476060F90DF91CF910895EF92FF9253
S1130D600F931F93CF93DF931F92CDB7DEB72BB1B1
S1130D702983298120612BB9662361F07C018C01D0
S1130D80E60EF11CF80181918F010E9476060E1582
S1130D901F05C1F70F90DF91CF911F910F91FF9025
S1130DA0EF9008958BB1837880668BB90895F89499
S1130DB089E20E949C060E94D20678940895F894D1
S1130DC081E10E949C060E94D20678940895CF93F4
S1130DD0DF931F92CDB7DEB780EA8983F89486E368
S1130DE00E949C0661E0CE0101960E94AE060E941C
S1130DF0D2068AE30E949C0686E0898361E0CE01E4
S1130E0001960E94AE060E94D20678940F90DF915C
S1130E10CF9108958F929F92AF92BF92CF92DF921B
S1130E20EF92FF920F931F93CF93DF93CDB7DEB76B
S1130E30A4970FB6F894DEBF0FBECDBF082FE8E22B
S1130E40F3E08081182F110F180F110F110F8281F9
S1130E50880F880F880FF8941D868E871F86895FF8
S1130E60888B8AE20E949C064E018DE0880E911CBC
S1130E7064E0C4010E94AE060E94D2061D861E874D
S1130E801F86155F188B8BE20E949C0664E0C401E8
S1130E900E94AE060E94D206BE016F5F7F4F802F74
S1130EA00E9453038CE20E949C06FE0131967F014E
S1130EB00F2EFFE2AF2EF3E0BF2EF02D0F2EFCE23B
S1130EC0CF2EF3E0DF2EF02D8E010B5D1F4FF701C7
S1130ED081917F01F501608151814281F601308168
S1130EE021819281FE013D9680FF04C0608351837D
S1130EF0428303C030832183928386953396E0171F
S1130F00F10791F768E1CE010D960E94AE068E14AA
S1130F109F04E9F60E94D20680912A0390912B0344
S1130F2001968431910529F090932B0380932A0331
S1130F3013C0E8E2F3E0138212828081918101966A
S1130F408A30910529F0909329038093280304C0E3
S1130F5010922903109228037894A4960FB6F8945B
S1130F60DEBF0FBECDBFDF91CF911F910F91FF90D8
S1130F70EF90DF90CF90BF90AF909F908F900895A7
S1130F804F925F926F927F928F929F92AF92CF9285
S1130F90DF92EF92FF920F931F93CF93DF93CDB71E
S1130FA0DEB7A4970FB6F894DEBF0FBECDBF762E82
S1130FB0F42E122F442361F0E8E2F3E08081182F2D
S1130FC0110F180F110F110F0281000F000F000FE6
S1130FD0F8941D860E871F86095F088B8AE20E949B
S1130FE09C062E018DE0480E511C64E0C2010E9453
S1130FF0AE060E94D2061D861E871F86155F188BBB
S11310008BE20E949C0664E0C2010E94AE060E942C
S1131010D206BE016F5F7F4F872D0E9453038CE27F
S11310200E949C06FE0131963F018E010B5D1F4F0D
S1131030F30191913F01FE013D9690FF04C0C082EF
S1131040D182E28203C080829182A28296953396F5
S1131050E017F10791F768E1CE010D960E94AE0604
S11310604614570429F70E94D206FF2001F180910B
S11310702A0390912B0301968431910529F09093D2
S11310802B0380932A0313C0E8E2F3E01382128255
S11310908081918101968A30910529F090932903EA
S11310A08093280304C01092290310922803789493
S11310B0A4960FB6F894DEBF0FBECDBFDF91CF91DB
S11310C01F910F91FF90EF90DF90CF90AF909F9082
S11310D08F907F906F905F904F9008958F929F9222
S11310E0AF92CF92DF92EF920F9380902C03909067
S11310F02D03A0902E03C0902F03D0903003E090D6
S113110031030E94C0070F91EF90DF90CF90AF9012
S11311109F908F900895BF92CF92DF92EF92FF92AB
S11311200F931F93CF93DF93CDB7DEB727970FB6F7
S1131130F894DEBF0FBECDBF0CE213E0F801B0801F
S1131140C180D28010828CEF81831282F8941C8239
S11311501D821E8280EA8F838AE20E949C0664E0DC
S1131160CE0104960E94AE060E94D2061C821D8205
S11311701E8280E88F838BE20E949C0664E0CE018D
S113118004960E94AE060E94D206F80180818983EB
S113119081818A8382818B838CE20E949C0668947D
S11311A0EE24E7F8F12C00EA10E063E0CE010196AA
S11311B00E94AE0601501109C1F7F1E0EF1AF108DF
S11311C091F77894E8E2F3E011821082138212829C
S11311D0ECE2F3E0B082C182D28227960FB6F89493
S11311E0DEBF0FBECDBFDF91CF911F910F91FF9056
S11311F0EF90DF90CF90BF9008950F931F93CF93FC
S1131200DF931F92CDB7DEB78C0190912703911124
S113121040C08AB1898389818C67898389818AB92D
S11312208BB1898389818378898389818066898365
S113123089818BB9EFE2F3E08CEF80838183828331
S1131240ECE2F3E0108211821282E8E2F3E013820E
S1131250128211821082C8010E945706C8010E949E
S1131260E7066CE070E080E090E00E94F003C801C3
S11312700E94DF066CE070E080E090E00E94F003E2
S1131280C8010E94D706C8010E948B0881E08093A0
S113129027030F90DF91CF911F910F910895CF9263
S11312A0DF92EF92FF920F93CF93DF93EB0168816C
S11312B0662391F06C0121960F2EF8E2EF2EF3E0F5
S11312C0FF2EF02DF7010281208141E0C6010E942A
S11312D06E0869916111F6CFDF91CF910F91FF9064
S11312E0EF90DF90CF9008954F925F926F927F922C
S11312F08F929F92AF92CF92DF92EF920F93CF9300
S1131300DF9300D000D01F92CDB7DEB77D836C830E
S1131310FB016081662321F129833A834B832C01ED
S11313203196FD83EC830F2EF8E26F2EF3E07F2ECF
S1131330F02D80902C0390902D03A0902E03C98053
S1131340DA80EB80F3010281208141E0C2010E9436
S1131350C007EC81FD816191FD83EC836111E9CFCC
S11313600F900F900F900F900F90DF91CF910F91EE
S1131370EF90DF90CF90AF909F908F907F906F9081
S11313805F904F900895E8E2F3E070E0718360832A
S113139050E05383428308950E940A0780E090E05E
S11313A0089527E432E0FC0131832083259A2D9AA5
S11313B012820E940504089595B180E2892785B9B7
S11313C00895FC0192819F5F923311F092830895F6
S11313D0CF0112820E94DC090895CF93DF93CDB729
S11313E0DEB7C357D1090FB6F894DEBF0FBECDBF29
S11313F081E090E00E9461110E94260483E090E065
S11314000E9461110E94D10981E090E00E94611163
S1131410E4969FAF8EAFE4970E94FD0881E090E0D0
S11314200E946111A6969FAF8EAFA6970E94FD08F9
S11314300F2EFCEF2F2EF02D312CD12C0E94330DCA
S1131440E6E3F3E086E191E09183808393838283F2
S11314509583848389E492E00E9494120E945C0440
S11314608AB18983898180648AB98BB189838981AE
S11314708F7B8BB98BE090E00E94611148E261E0C0
S11314800E94BC0C8BE090E00E946111A8969FAF73
S11314908EAFA89748E263E00E94BC0C8BE090E01A
S11314A00E946111AA969FAF8EAFAA974BE267E0A4
S11314B00E94BC0C85E090E00E946111E0969FAF11
S11314C08EAFE09764E60E94C5048DE090E00E9430
S11314D06111AC969FAF8EAFAC9725E244E063E018
S11314E00E94D90489EA90E00E946111E2969FAFBC
S11314F08EAFE29745E951E0AC966EAD7FADAC9707
S11315000E945A0D89EA90E00E94611145E951E078
S1131510AC966EAD7FADAC970E945A0DE4966EAD5D
S11315207FADE497CE0106960E949B0CAE961FAE4B
S11315301EAEAE972E0124E5420E511CAA968EAD26
S11315409FADAA970E941D0D8823D9F1AA968EAD4E
S11315509FADAA970E94250D8230B9F462E0E2960D
S11315608EAD9FADE2970E947B0E6A837B838C8352
S11315709D836A817B818C819D810E947D048BB1D6
S11315808983898180648BB916C062E0E2968EAD4E
S11315909FADE2970E944D0E6A837B838C839D836B
S11315A06A817B818C819D810E947D048BB18983BA
S11315B089818F7B8BB9AA968EAD9FADAA970E9425
S11315C0280DA8968EAD9FADA8970E941D0D882367
S11315D071F1A8968EAD9FADA8970E94250D82301B
S11315E049F48BE0EDE5F2E0D20101900D928A9589
S11315F0E1F708C08BE0E8E6F2E0D20101900D9239
S11316008A95E1F7A8968EAD9FADA8970E94280D04
S113161040E062E0E4968EAD9FADE4970E94C3097A
S1131620B201E4968EAD9FADE4970E944F09AC964B
S11316308EAD9FADAC970E94B205882309F442C0D9
S113164062E0E2968EAD9FADE2970E94B00DAC963B
S11316508EAD9FADAC970E94BD0542E0B201E2960B
S11316608EAD9FADE2970E94A70F420110E0612C5E
S1131670712CF20101900020E9F73197E419F50982
S11316806E167F06F8F4F40161914F010F2EFCEF02
S1131690AF2EF02D0F2EFCEFBF2EF02D0F2EFCEFF2
S11316A0CF2EF02DE22CF32C0D2D212F4CE0A696FD
S11316B08EAD9FADA6970E94CC05FFEF6F1A7F0AEF
S11316C0105FD7CFE0968EAD9FADE0970E94D00417
S11316D0882309F433CF40E069E0A6968EAD9FAD30
S11316E0A6970E94C309AE968EAC9FACAE972FEF1F
S11316F0821A920AAE968FADAE978F93AD969FAD38
S1131700AD979F93E3E7F2E0FF93EF938091070196
S11317108F93809106018F930E9482120F900F90F5
S11317200F900F900F900F90AE969FAE8EAEAE9727
S113173005CF9C014115510551F0A62FB72FFC018F
S1131740480F591F9D919193E417F507D9F7C901E3
S113175008952F923F924F925F926F927F928F9251
S11317609F92AF92BF92CF92DF92EF92FF920F932C
S11317701F93CF93DF93CDB7DEB761970FB6F8947D
S1131780DEBF0FBECDBF5C016B01EE24E394412CA0
S1131790512C0F2EFBE03F2EF02D0F2EFCE76F2E69
S11317A0F2E07F2EF02DCE0101964C01282E998A6D
S11317B001C0E394FF24FA94FE0C85013F9C000DC4
S11317C0111D1124D8011E964C911E971C966C91E4
S11317D0C6010E94C3092091240130912501409142
S11317E02601F80160897189C6010E947409D80133
S11317F054964C91549752966C91C6010E94C30919
S1131800B2E0FB1639F1BF1530F0FF2071F0E1E0D2
S1131810FE16A9F05CC0F4E0FF1691F1FF1628F162
S113182085E0F81609F43FC052C0D501EC91F0E010
S1131830EE0FFF1FE95CFE4F4080518057C0D50179
S11318401196EC91F0E0EE0FFF1FEF5BFE4F40802E
S113185051804CC0D5011296EC91F0E0EE0FFF1FC1
S1131860EF5CFE4F4080518041C0D5011596EC914C
S1131870F0E0EE0FFF1FE95DFE4F4080518036C05F
S1131880F50186811F928F937F926F929F928F9220
S11318900E94C4120F900F900F900F900F900F9012
S11318A0422C598823C02091240130912501409174
S11318B02601D5011396EC91F0E0EE0FFF1FE35DD6
S11318C0FE4F60817181C6010E9474091BC0209182
S11318D024013091250140912601642D752DC60106
S11318E00E947409B6E0EB1264CF0CC0209124016D
S11318F03091250140912601642D752DC6010E9469
S1131900740957CF61960FB6F894DEBF0FBECDBFF2
S1131910DF91CF911F910F91FF90EF90DF90CF90C7
S1131920BF90AF909F908F907F906F905F904F90FB
S11319303F902F9008950F931F93CF93DF93EC0163
S11319408B0181E0888382E089831A821B821C8256
S11319501D8282E18E8342E450E063E571E0CE01B2
S11319600B960E94990BB801CE010E94A90BDF913E
S1131970CF911F910F910895FC0184EF92E0918320
S1131980808381E090E0062E02C0880F991F0A949C
S1131990E2F7A42FB0E0B483A3839D012250310960
S11319A0368325831197B087A78362839C91282F60
S11319B0209592239C93A381B4819C91982B9C9312
S11319C0A581B6819C91892311F0118602C082E021
S11319D081871286CF010E9405040895FC01A58128
S11319E0B6818C9121E030E0028002C0220F331FC7
S11319F00A94E2F728238185813059F028F0823057
S1131A0071F0833089F00895211113C081E081873A
S1131A10089521110EC082E08187828708952223D0
S1131A2041F083E081870895222319F0118681E033
S1131A30828708950E94EE0C089521E0FC018285BE
S1131A40811101C020E0822F0895FC018285089550
S1131A50FC0112860895FC019185925081E0923038
S1131A6008F080E008951092C50088E08093C400D7
S1131A7088E18093C1008EE08093C2000895E0EC79
S1131A80F0E080818823ECF78091C60090E008950F
S1131A90CF93C82F8A3019F48DE00E94480DE0ECF2
S1131AA0F0E0808185FFFDCFC093C60080E090E028
S1131AB0CF9108950F931F93CF93DF93EC018B0184
S1131AC0FA01DC019A012E553F4F40815181628118
S1131AD073814D935D936D937C93139744815581EA
S1131AE06681778114964D935D936D937C931797DC
S1131AF0808518968C9318974185528563857485E3
S1131B0019964D935D936D937C931C9745855685EB
S1131B10678570891D964D935D936D937C93509763
S1131B20918951969C93519772965296E217F307B6
S1131B3061F6FE01E955FF4F11830083359784E672
S1131B4090E0A0E0B0E080839183A283B383CA5580
S1131B50DF4F81E08883DF91CF911F910F9108952A
S1131B60CF92DF92EF92FF921F93CF93DF93EC011A
S1131B70162FFC01E955FF4F808191810E94B20527
S1131B80882309F482C0FE01E955FF4F80819181C9
S1131B900E94BA058230E1F5FE01EE55FF4FC08088
S1131BA0D180E280F3803596808191810E94C605C0
S1131BB0DC011196A70196010E944A11AB01BC01F8
S1131BC0812F90E0880F991F9C01220F331F220F51
S1131BD0331F220F331F820F931FC80FD91F888111
S1131BE09981AA81BB81841B950BA60BB70B8883B3
S1131BF09983AA83BB8389859A85AB85BC85841B1D
S1131C00950BA60BB70B89879A87AB87BC873DC01A
S1131C108130D9F5FE01EE55FF4FC080D180E280BE
S1131C20F3803596808191810E94C005DC01119674
S1131C30A70196010E944A11AB01BC01812F90E0DB
S1131C40880F991F9C01220F331F220F331F220F6D
S1131C50331F820F931FC80FD91F88819981AA81CE
S1131C60BB81840F951FA61FB71F88839983AA83FE
S1131C70BB8389859A85AB85BC85840F951FA61F78
S1131C80B71F89879A87AB87BC87DF91CF911F9154
S1131C90FF90EF90DF90CF9008950F931F93E62F5E
S1131CA0F0E0EE0FFF1F9F01220F331F220F331F9F
S1131CB0220F331FE20FF31FE80FF91F40815181F8
S1131CC06281738184819581A681B7818A019B0198
S1131CD0080F191F2A1F3B1FC901B801208530E0D6
S1131CE040E050E00E941D11CA01B9010E94121087
S1131CF01F910F9108950F931F93E62FF0E0EE0FBD
S1131D00FF1F9F01220F331F220F331F220F331F88
S1131D10E20FF31FE80FF91F41855285638574852F
S1131D2085859685A785B0898A019B01080F191FAF
S1131D302A1F3B1FC901B801218930E040E050E06F
S1131D400E941D11CA01B9010E9412101F910F9126
S1131D500895CF92DF92EF92FF92CF93DF936A01BF
S1131D607B01E901CB01BA0120E031EE45EF55E0FA
S1131D700E941D1180E3820F888360E071EE85EF7D
S1131D8095E00E940D11C61AD70AE80AF90AC7019C
S1131D90B60120E836E948E950E00E941D1180E3CD
S1131DA0820F898360E876E988E990E00E940D114A
S1131DB0C61AD70AE80AF90AC701B60120E432E4D0
S1131DC04FE050E00E941D1180E3820F8A8360E49B
S1131DD072E48FE090E00E940D11C61AD70AE80A57
S1131DE0F90AC701B60120EA36E841E050E00E9452
S1131DF01D1180E3820F8B8360EA76E881E090E036
S1131E000E940D11C61AD70AE80AF90AC701B601D9
S1131E1020E137E240E050E00E941D1180E3820F90
S1131E208C83A0E1B7E20E943F11C61AD70AE80AE0
S1131E30F90AC701B60128EE33E040E050E00E9401
S1131E401D1180E3820F8D83A8EEB3E00E943F1141
S1131E50C61AD70AE80AF90AC701B60124E630E02F
S1131E6040E050E00E941D1180E3820F8E83A4E6BF
S1131E70B0E00E943F11C61AD70AE80AF90AC7015E
S1131E80B6012AE030E040E050E00E941D1180E3FA
S1131E90820F8F83822F932FA42FB52F880F991F22
S1131EA0AA1FBB1FAC01BD01440F551F661F771F3E
S1131EB0440F551F661F771F840F951FA61FB71F5A
S1131EC0A7019601281B390B4A0B5B0BDA01C901E8
S1131ED0805D88871986DF91CF91FF90EF90DF9026
S1131EE0CF900895CF93DF93FA01A62FB72F80E008
S1131EF090E020E030E0C1E070E051E0DEE260E03C
S1131F0021153105A1F0452F8330910509F0462FA5
S1131F10411107C0452F8630910509F0462F44230F
S1131F2011F0D08331964C914083319607C04C9187
S1131F30403321F0408331962C2F372F0196119690
S1131F4089309105E9F61082DF91CF910895EF92DF
S1131F50FF920F931F93CF93DF93CDB7DEB76097B4
S1131F600FB6F894DEBF0FBECDBF8C017B0150E0ED
S1131F70440F551FFA01EE0FFF1FEE0FFF1FEE0F68
S1131F80FF1F4E0F5F1FFC01E40FF51F41855285B3
S1131F90638574859E012F5F3F4F0E94A90EA701A0
S1131FA0BE016F5F7F4FC8010E94720F60960FB62B
S1131FB0F894DEBF0FBECDBFDF91CF911F910F917B
S1131FC0FF90EF9008950E94571088F09F5798F063
S1131FD0B92F9927B751B0F0E1F0660F771F881F2A
S1131FE0991F1AF0BA95C9F714C0B13091F00E9444
S1131FF07110B1E008950C947110672F782F882721
S1132000B85F39F0B93FCCF3869577956795B3956A
S1132010D9F73EF490958095709561957F4F8F4FD9
S11320209F4F0895E89409C097FB3EF490958095DE
S1132030709561957F4F8F4F9F4F9923A9F0F92F8A
S113204096E9BB279395F695879577956795B79508
S1132050F111F8CFFAF4BB0F11F460FF1BC06F5FEE
S11320607F4F8F4F9F4F16C0882311F096E911C000
S1132070772321F09EE8872F762F05C0662371F021
S113208096E8862F70E060E02AF09A95660F771F35
S1132090881FDAF7880F9695879597F9089557FD65
S11320A09058440F551F59F05F3F71F04795880FC2
S11320B097FB991F61F09F3F79F087950895121659
S11320C013061406551FF2CF4695F1DF08C0161605
S11320D017061806991FF1CF8695710561050894B6
S11320E00895E894BB2766277727CB0197F90895CD
S11320F00E948B100C94FC100E94EE1038F00E9489
S1132100F51020F0952311F00C94E5100C94EB10CD
S113211011240C9472100E944F1070F3959FC1F318
S1132120950F50E0551F629FF001729FBB27F00D81
S1132130B11D639FAA27F00DB11DAA1F649F6627D6
S1132140B00DA11D661F829F2227B00DA11D621F25
S1132150739FB00DA11D621F839FA00D611D221FDF
S1132160749F3327A00D611D231F849F600D211DC3
S1132170822F762F6A2F11249F5750409AF0F1F046
S113218088234AF0EE0FFF1FBB1F661F771F881FAF
S113219091505040A9F79E3F510580F00C94E510F2
S11321A00C9472105F3FE4F3983ED4F386957795D0
S11321B06795B795F795E7959F5FC1F7FE2B880F55
S11321C0911D9695879597F9089597F99F6780E8EB
S11321D070E060E008959FEF80EC089500240A9475
S11321E01616170618060906089500240A941216EE
S11321F01306140605060895092E0394000C11F421
S1132200882352F0BB0F40F4BF2B11F460FF04C0CD
S11322106F5F7F4F8F4F9F4F0895DB018F939F9385
S11322200E943F11BF91AF91A29F800D911DA39F6A
S1132230900DB29F900D11240895A1E21A2EAA1BAD
S1132240BB1BFD010DC0AA1FBB1FEE1FFF1FA21762
S1132250B307E407F50720F0A21BB30BE40BF50B5F
S1132260661F771F881F991F1A9469F760957095E8
S1132270809590959B01AC01BD01CF0108950E940A
S11322805211A59F900DB49F900DA49F800D911D98
S113229011240895B7FF0C943F110E943F11821B33
S11322A0930B0895A29FB001B39FC001A39F700D2B
S11322B0811D1124911DB29F700D811D1124911D4A
S11322C008950F931F93CF93DF938230910510F4F9
S11322D082E090E0E0913403F091350320E030E0B7
S11322E0A0E0B0E0309719F140815181028113815F
S11322F048175907C8F08417950769F4109731F007
S113230012960C93129713961C9327C000933403D0
S11323101093350322C02115310519F042175307D4
S113232018F49A01BD01EF01DF01F801DBCF21159B
S11323303105F9F0281B390B2430310580F48A81EA
S11323409B816115710521F0FB019383828304C095
S11323509093350380933403FE01329644C0FE010A
S1132360E20FF31F8193919322503109398328831B
S11323703AC02091320330913303232B41F420914E
S113238002013091030130933303209332032091EF
S11323900001309101012115310541F42DB73EB7FB
S11323A04091040150910501241B350BE091320347
S11323B0F0913303E217F307A0F42E1B3F0B281709
S11323C0390778F0AC014E5F5F4F2417350748F0AA
S11323D04E0F5F1F509333034093320381939193C5
S11323E002C0E0E0F0E0CF01DF91CF911F910F91A7
S11323F00895CF93DF93009709F481C0FC013297CD
S113240013821282A0913403B0913503109781F4A2
S113241020813181820F931F209132033091330345
S11324202817390751F5F0933303E093320367C05B
S1132430ED0120E030E0CE17DF0740F44A815B81F4
S11324409E0141155105F1F0EA01F5CFD383C28312
S113245040815181840F951FC817D90759F4888189
S11324609981840F951F0296918380838A819B8131
S1132470938382832115310529F4F0933503E09386
S113248034033DC0E901FB83EA8349915991C40FA8
S1132490D51FEC17FD0761F480819181840F951F8E
S11324A00296E90199838883828193819B838A833D
S11324B0E0E0F0E012968D919C911397009719F04B
S11324C0FD01DC01F7CF8D919C9111979D012E5F49
S11324D03F4F820F931F209132033091330328170B
S11324E0390769F4309729F41092350310923403B4
S11324F002C013821282B0933303A0933203DF919C
S1132500CF910895A0E0B0E0E8E8F2E10C948715DB
S1132510AE01475F5F4F6F8178858D819E810E94F8
S1132520E612E2E00C94A3150F931F93CF93DF936D
S1132530E0913803F0913903238121FF1BC08C0102
S1132540D0E0C0E0F80181918F016091380370916F
S11325503903DB011896ED91FC911997882331F02A
S11325600995892B79F3DFEFCFEFECCF8AE009955A
S1132570892B19F08FEF9FEF02C08D2F9C2FDF91D5
S1132580CF911F910F910895AEE0B0E0EAECF2E133
S11325900C9485150D891E8986E08C831A83098322
S11325A08FEF9FE79E838D83AE01475E5F4F6F89F8
S11325B0788DCE0101960E94E612EF81F885E00F36
S11325C0F11F10822E96E4E00C94A115ABE0B0E06C
S11325D0ECEEF2E10C9477156C017B018A01FC01AD
S11325E017821682838181FFCCC1CE0101963C0102
S11325F0F6019381F70193FD859193FF81917F010A
S1132600882309F4BAC1853239F493FD859193FF87
S113261081917F01853229F4B60190E00E94DD1496
S1132620E7CF912C212C312CFFE1F315D8F08B321C
S113263079F038F4803279F08332A1F4232D2061CB
S11326401DC08D3261F0803369F4232D216016C0E2
S1132650832D8260382EE32DE4603E2E2AC0F32DB4
S1132660F8601DC037FC2DC020ED280F2A3040F043
S11326708E32B9F436FC81C1232D2064322E19C068
S113268036FE06C08AE0989E200D1124922E11C0B9
S1132690EAE02E9E200D1124222EF32DF0623F2E0F
S11326A008C08C3621F4832D8068382E02C0883609
S11326B041F4F70193FD859193FF81917F0181118D
S11326C0B3CF982F9F7D9554933028F40C5F1F4F00
S11326D09FE399830DC0833631F0833771F08335DE
S11326E009F059C021C0F801808189830E5F1F4F12
S11326F088248394912C530113C02801F2E04F0ED7
S1132700511CF801A080B18036FE03C0692D70E031
S113271002C06FEF7FEFC5010E94D2144C01820109
S1132720F32DFF773F2E16C0280122E0420E511CE4
S1132730F801A080B18036FE03C0692D70E002C0AC
S11327406FEF7FEFC5010E94C7144C01F32DF068B1
S11327503F2E820133FC1BC0822D90E0881699061F
S1132760B0F4B60180E290E00E94DD142A94F4CF24
S1132770F50137FC859137FE81915F01B60190E048
S11327800E94DD1421102A9421E0821A91088114F8
S1132790910471F7E8C0843611F0893641F5F801E7
S11327A037FE07C060817181828193810C5F1F4F66
S11327B008C060817181072E000C880B990B0E5F95
S11327C01F4FF32DFF763F2E97FF09C090958095FC
S11327D0709561957F4F8F4F9F4FF0683F2E2AE091
S11327E030E0A3010E941915882E861845C085374C
S11327F031F4232D2F7EB22E2AE030E025C0932D14
S1132800997FB92E8F36C1F018F4883579F0B5C0A8
S1132810803719F0883721F0B0C0E92FE061BE2E6F
S1132820B4FE0DC0FB2DF460BF2E09C034FE0AC0F7
S1132830292F2660B22E06C028E030E005C020E132
S113284030E002C020E132E0F801B7FE07C0608149
S11328507181828193810C5F1F4F06C060817181F9
S113286080E090E00E5F1F4FA3010E941915882E8F
S11328708618FB2DFF773F2E36FE0DC0232D2E7FAD
S1132880A22E891458F434FE0BC032FC09C0832DE7
S11328908E7EA82E05C0B82CA32C03C0B82C01C072
S11328A0B92CA4FE0FC0FE01E80DF11D8081803318
S11328B021F49A2D997EA92E09C0A2FE06C0B394D4
S11328C0B39404C08A2D867809F0B394A3FC11C094
S11328D0A0FE06C0B21488F4280C922C9B180EC0DB
S11328E0B21460F4B60180E290E00E94DD14B39467
S11328F0F7CFB21418F42B1802C0982C212CA4FE84
S113290010C0B60180E390E00E94DD14A2FE17C05F
S1132910A1FC03C088E790E002C088E590E0B6011E
S11329200CC08A2D867859F0A1FE02C08BE201C04A
S113293080E2A7FC8DE2B60190E00E94DD148914C8
S113294038F4B60180E390E00E94DD149A94F7CF46
S11329508A94F301E80DF11D8081B60190E00E9494
S1132960DD148110F5CF222009F442CEB60180E2B5
S113297090E00E94DD142A94F6CFF60186819781B7
S113298002C08FEF9FEF2B96E2E10C949315FC01AC
S11329900590615070400110D8F7809590958E0F86
S11329A09F1F0895FC016150704001900110D8F7F9
S11329B0809590958E0F9F1F08950F931F93CF932B
S11329C0DF93FB01238121FD03C08FEF9FEF2CC018
S11329D022FF16C04681578124813581421753074F
S11329E044F4A081B1819D012F5F3F4F3183208347
S11329F08C93268137812F5F3F4F3783268314C002
S1132A008B01EC01FB010084F185E02D0995892BF4
S1132A10E1F6D80116968D919C9117970196179619
S1132A209C938E931697CE01DF91CF911F910F91B6
S1132A300895FA01AA27283051F1203181F1E89450
S1132A406F936E7F6E5F7F4F8F4F9F4FAF4FB1E09D
S1132A503ED0B4E03CD0670F781F891F9A1FA11D98
S1132A60680F791F8A1F911DA11D6A0F711D811D99
S1132A70911DA11D20D009F468943F912AE0269F5E
S1132A8011243019305D3193DEF6CF010895462FBD
S1132A904770405D4193B3E00FD0C9F7F6CF462F9E
S1132AA04F70405D4A3318F0495D31FD4052419307
S1132AB002D0A9F7EACFB4E0A695979587957795C4
S1132AC06795BA95C9F700976105710508959B014B
S1132AD0AC010A2E06945795479537952795BA95D4
S1132AE0C9F7620F731F841F951FA01D08952F92AD
S1132AF03F924F925F926F927F928F929F92AF928A
S1132B00BF92CF92DF92EF92FF920F931F93CF93D6
S1132B10DF93CDB7DEB7CA1BDB0B0FB6F894DEBF6D
S1132B200FBECDBF09942A88398848885F846E8493
S1132B307D848C849B84AA84B984C884DF80EE80DD
S1132B40FD800C811B81AA81B981CE0FD11D0FB6E6
S1132B50F894DEBF0FBECDBFED010895F894FFCF0A
S1132B6000003C03200008010000000200000000F7
S1132B70CC09000000000000000300000000480D24
S1132B803F0D0000FCFCFC7F028202850288028C5F
S1132B90029002940298029C02A002A402A802AC31
S1132BA002B002B402B802BC02C002C402C802CC21
S1132BB0029C020006000000D00206000500010687
S1132BC0000C00D602060011000207000000DC021F
S1132BD0070004000307000700E10207000B0004DC
S1132BE007000D00E502070011000508000000EAD7
S1132BF0020800050040771B000000000001407738
S1132C001B000000000001E0673500000000000127
S1132C10E06735000000000001C0CF6A00F0D8FF73
S1132C20FF01C0CF6A0000000000018096980000F8
S1132C3000000001809698000000000001809FD5EC
S1132C40000000000002809FD50000000000022068
S1132C50B21301000000000220B2130100000000C2
S1132C6002406F40010000000003406F400100007B
S1132C7000000390CA7B01000000000390CA7B019E
S1132C800000000003003FAB010000000004003F0F
S1132C90AB01000000000400000000B904000000C3
S1132CA000AF0500000000E1096D61696E3A205330
S1132CB074617274696E67206C6F6F700044415365
S1132CC0485F434C4F534500444153485F4F504580
S1132CD04E2000506173732025640A00256400535C
S1132CE054004247005044005258200054582000D9
S1132CF04120200042202000535020003130200089
S1132D0031303000314B200031304B00314D200048
S1132D103136300038302000343020003330200089
S1132D20323020003137200031352000313220008C
S1132D3053544550200042414E44200056464F20F3
S1132D40004B59200053504420004D4F444520006F
S1092D50000000001A0D52
S9030000FC
