:1000000033C000004EC000004CC000004AC00000D9
:1000100048C0000046C0000044C00000E2C4000028
:1000200040C000003EC000003CC000000C94DB1249
:1000300038C0000036C0000034C0000032C00000EC
:1000400030C000002EC000002CC000002AC00000FC
:1000500028C0000026C0000024C0000022C000000C
:1000600020C000001EC0000011241FBECFEFD8E04A
:10007000DEBFCDBF12E0A0E0B1E0E0EFF6E302C0EA
:1000800005900D92AC3FB107D9F723E0ACEFB2E099
:1000900001C01D92A535B207E1F70E94E90A0C9450
:1000A000761BAECF00000000000000000000000042
:1000B0000000000000000000000000000000000040
:1000C0000000000000000000000000000000000030
:1000D0000000000000000000000000000000000020
:1000E0000000000000000000000000000000000010
:1000F0000000000000000000000000000000000000
:1001000000000000000000000000000000000000EF
:1001100000000000000000000000000000000000DF
:1001200000000000000000000000000000000000CF
:1001300000000000000000000000000000000000BF
:1001400000000000000000000000000000000000AF
:10015000000000000000000000000000000000009F
:10016000000000000000000000000000000000008F
:10017000000000000000000000000000000000007F
:10018000000000000000000000000000000000006F
:10019000000000000000000000000000000000005F
:1001A000000000000000000000000000000000004F
:1001B000000000000000000000000000000000003F
:1001C000000000000000000000000000000000002F
:1001D000000000000000000000000000000000001F
:1001E000000000000000000000000000000000000F
:1001F00000000000000000000000000000000000FF
:1002000000000000000000000000000000000000EE
:1002100000000000000000000000000000000000DE
:1002200000000000000000000000000000000000CE
:10023000000808080808080008000000001414144A
:100240000000000000000000000014143E143E14E2
:10025000140000000000083C0A1C281E08000000D2
:1002600000000626100804323000000000001C02C6
:1002700002042A122C0000000018080400000000EC
:1002800000000000201010080808080810102000C6
:10029000020404080808080804040200000000081A
:1002A0002A1C2A080000000000000008083E080878
:1002B0000000000000000000000000181808040002
:1002C00000000000003E00000000000000000000F0
:1002D0000000001818000000202010100808040476
:1002E00002020000001C22322A2622221C000000EA
:1002F00000080C080808080808000000001C22205C
:10030000100804023E000000001C222018202022B9
:100310001C0000000010181814143E1038000000D3
:10032000003E02021E2020221C00000000180402D1
:100330001E2222221C000000003E22202010100855
:1003400008000000001C22221C2222221C000000A7
:10035000001C2222223C20100C000000000000188B
:1003600018000018180000000000001818000018FD
:1003700018080400000000300C030C3000000000DE
:10038000000000003E003E000000000000000003EE
:100390000C300C0300000000001C22201008080094
:1003A0000800000000001C223A3A1A021C0000005B
:1003B0000000081422223E222200000000001E221B
:1003C000221E22221E00000000001C220202022225
:1003D0001C00000000000E12222222120E0000005B
:1003E00000003E02021E02023E00000000003E022B
:1003F000021E02020200000000001C220232222221
:100400003C00000000002222223E222222000000A6
:1004100000003E08080808083E00000000003820E0
:10042000202022221C000000000022120A060A12CC
:100430002200000000000202020202023E00000050
:10044000000022362A2A2222220000000000222652
:10045000262A32322200000000001C222222222200
:100460001C00000000001E22221E020202000000EA
:1004700000001C22222222221C30000000001E222A
:10048000221E0A122200000000001C22021C202250
:100490001C00000000003E080808080808000000D2
:1004A00000002222222222221C0000000000222220
:1004B000221414080800000000002222222A2A36F2
:1004C0002200000000002222140814222200000052
:1004D00000002222140808080800000000003E2046
:1004E000100804023E000000380808080808080840
:1004F0000808380002020404080810102020000038
:100500000E0808080808080808080E000008142249
:1005100000000000000000000000000000000000DB
:10052000003F0000000C0810000000000000000068
:10053000000000003C2222322C00000000020202D7
:100540001E2222221E000000000000003C020202C7
:100550003C000000002020203C2222223C00000021
:10056000000000001C223E021C00000000380404B1
:100570001E04040404000000000000003C222222AB
:100580003C20201C000202021E2222222200000027
:10059000000808000C0808081C00000000101000EB
:1005A0001C1010101010100E00020202120A060A8F
:1005B00012000000000C0808080808081C000000D1
:1005C00000000000162A2A2A220000000000000075
:1005D0001A26222222000000000000001C222222F3
:1005E0001C000000000000001E2222221E02020247
:1005F000000000003C2222223C20202000000000BD
:100600001A06020202000000000000003C021C204A
:100610001E000000000808083E080808300000001E
:1006200000000000222222322C0000000000000006
:10063000361414080800000000000000222A2A2AAC
:100640001400000000000000221408142200000022
:1006500000000000222222223C20201C000000007A
:100660003E1008043E00000020101010100810106A
:1006700010102000080808080808080808080800E2
:1006800002040404040804040404020000042A1000
:100690000000000000000000000000080814142200
:1006A0003E000000CF93DF939CE0899FE2E5F0E0FD
:1006B000EE0FFF1FE00DF11D8CE0EB01959199937A
:1006C0008A95E1F71124DF91CF910895AF92BF92FF
:1006D000CF92DF92EF92FF920F931F93CF93DF930E
:1006E0001F92CDB7DEB75C01C42ED22E88E392E014
:1006F000F5019183808304E010E0168705878BE085
:1007000090E069830E942A177C014D2D69810E9427
:100710001E12F501F382E2828BE090E00E942A171C
:100720007C014D2D6C2D0E941E12F501F582E48294
:10073000828193810E948912F50124813581882369
:1007400071F0C9010E948912882319F082E090E0BB
:1007500002C081E090E0F501978386830BC0C90158
:100760000E948912F501882319F01783068302C0BD
:1007700017821682F501108661E070E0C50169D12B
:10078000F50112861186148613860F90DF91CF91A2
:100790001F910F91FF90EF90DF90CF90BF90AF909F
:1007A00008951F93CF93DF93EC018A819B810E9470
:1007B0007B12811107C08C819D810E947B1288234E
:1007C00009F461C08A819B810E9483122C813D8142
:1007D000823039F4C9010E948912882309F44EC07D
:1007E0001BC0C9010E9483122A813B81823021F4FF
:1007F0008D859E85049759F0C9010E9483122C8132
:100800003D81813059F48D859E85019739F0C9016C
:100810000E948912811132C012E00AC0C9010E94EF
:100820008312813021F48D859E85049749F110E073
:100830008A819B810E9486128C819D810E948612F2
:10084000112309F18885113061F4813031F48985F3
:100850009A8501969A87898716C01A8619861887FD
:1008600012C0823031F48B859C8501969C878B87E2
:100870000AC01C861B8682E0888705C011E0D8CF9D
:100880008A819B81A8CFDF91CF911F91089589CF55
:1008900021E0FC018085811101C020E0822F0895B4
:1008A000FC0180850895FC0110860895FC01818576
:1008B0009285128611860895FC018385948514869D
:1008C0001386089570E0FC017687658708950F937D
:1008D0001F93CF93DF938091390390913A03A091B6
:1008E0003B03B0913C030196A11DB11D80933903D8
:1008F00090933A03A0933B03B0933C03809135035C
:1009000090913603A0913703B0913803892B8A2B3D
:100910008B2B99F08091350390913603A09137038A
:10092000B09138030197A109B109809335039093E1
:100930003603A0933703B093380304E213E0C0E01A
:10094000D0E0D8018D919D918D010097E1F09E013D
:10095000220F331FF901E050FD4F4081518141507A
:10096000510951834083452B71F4D901A05FBC4FDD
:100970002D913C9131832083DC01ED91FC9101901C
:10098000F081E02D09952196C830D105D1F6C0E25D
:10099000D3E000E010E0888199810097B1F0F80180
:1009A000EE0FFF1FE450FD4F2081318121503109AE
:1009B00031832083232B49F4DC01ED91FC910190DC
:1009C000F081E02D099519821882229601301105D7
:1009D00019F001E010E0DFCFDF91CF911F910F916F
:1009E00008951F920F920FB60F9211242F933F93E9
:1009F0004F935F936F937F938F939F93AF93BF9327
:100A0000EF93FF9364DFFF91EF91BF91AF919F91BF
:100A10008F917F916F915F914F913F912F910F90A7
:100A20000FBE0F901F901895609335037093360397
:100A30008093370390933803809135039091360368
:100A4000A0913703B0913803892B8A2B8B2BA1F708
:100A50000895E4E2F3E020E030E0A191B191A90132
:100A60004F5F5F4FAB2B99F4220F331FF901EC5D01
:100A7000FC4F91838083F901E05FFC4F71836083B9
:100A8000F901E050FD4F71836083CA0108959A0116
:100A90004830510511F780E090E00895209120033F
:100AA00030912103232B49F020912203309123031D
:100AB000232BA9F421E030E002C020E030E0A901BE
:100AC000440F551FFA01E05EFC4F91838083FA01C9
:100AD000E450FD4F71836083C9010196089580E061
:100AE00090E00895009751F0833091053CF4880F11
:100AF000991FFC01E25EFC4F118210820895F89468
:100B000082E08093B00097E09093B1001092B20021
:100B10009DE99093B3008093700010923903109276
:100B20003A0310923B0310923C0310923403E4E228
:100B3000F3E01192119283E0E433F807D1F7E0E299
:100B4000F3E01192119283E0E033F807D1F7789443
:100B500008950895CF93DF931F92CDB7DEB784B188
:100B60008983898187628983898184B985B18983F1
:100B70008981887D8983898185B98981816089831B
:100B8000898185B989818E7F8983898185B98981A8
:100B900082608983898185B989818D7F89838981F3
:100BA00085B90F90DF91CF910895CF93DF931F9276
:100BB000CDB7DEB7F89425B129832981287D298313
:100BC000298125B92FE530E749E052E40E949F16BC
:100BD0000E940D1640E250E0298160FF02C02460AF
:100BE00001C02B7F2983298125B92981216029838F
:100BF000298125B929812E7F2983298125B99695B7
:100C00008795779567954150510931F789818B7F99
:100C10008983898185B988E090E0298121602983D1
:100C2000298125B929812E7F2983298125B9019719
:100C3000A1F7898182608983898185B989818D7FC6
:100C40008983898185B978940F90DF91CF91089538
:100C50006F927F928F929F92AF92BF92CF92DF92CC
:100C6000EF92FF920F931F93CF93DF93CDB7DEB731
:100C7000ED970FB6F894DEBF0FBECDBF962EDE2CDB
:100C80008F2CF89419822A831B82215F2C838AE29D
:100C90004DAFB0D164E0CE010196BDD1E5D119824E
:100CA0004DAD4A831B82495E4C838BE2A3D164E045
:100CB000CE010196B0D1D8D1BE016F5C7F4F892D96
:100CC000F1DC8CE297D1E12CF12CF701F595E79559
:100CD00081E390E08C0F9D1FE80FF91F9080DE01EB
:100CE00011963D01FE01369616E0BF016450710970
:100CF000AF01435051099F0122503109CF010197A3
:100D0000D30190FE0BC0DC92DB018C92DA010C93D4
:100D1000D901DC92DC018C9200830AC0AC92DB0129
:100D2000BC92DA01CC92D901AC92DC01BC92C082B7
:100D300096941A5FB6E06B0E711C36961633A9F6C0
:100D400060E3CE01019667D18FEFE81AF80A98E1C7
:100D5000E916F10409F0B9CF87D17894ED960FB672
:100D6000F894DEBF0FBECDBFDF91CF911F910F91E1
:100D7000FF90EF90DF90CF90BF90AF909F908F90BB
:100D80007F906F900895CF93DF93EC018A85823036
:100D900009F44FC038F4882361F0813009F06BC04A
:100DA00082E055C0833009F451C0843009F456C044
:100DB00062C08A819B810E947B128823B1F08A8164
:100DC0009B810E9483122B853C8560E0823059F420
:100DD000C9010E94D61181E08A8768857985CE0194
:100DE0000E94A7124EC0C9014AC08C819D810E94F9
:100DF0007B12882309F482C08C819D810E9483121A
:100E00002B853C8560E0823081F4C9010E94D611B7
:100E100083E08A8768857985CB01880F991F680FE1
:100E2000791FCE010E94A71230C0C9010E94FA1199
:100E30002CC08A819B810E94891281112CC08C81D7
:100E40009D810E948912811126C032C084E08A8768
:100E500060E08B859C850E94FA1149C08A819B8144
:100E60000E948912811126C08C819D810E94891265
:100E7000811120C01DC01A8660E08B859C850E9470
:100E8000FA118A819B810E9486128C819D81DF915B
:100E9000CF910C9486128A819B810E9489128823AB
:100EA00081F08C819D810E94891281110AC018C035
:100EB0001A86E7CF8A819B810E948912811110C016
:100EC000F0CF83E08A8760E08B859C850E94D611F5
:100ED00068857985CB01880F991F680F791F09C034
:100EE00081E08A8760E08B859C850E94D6116885A9
:100EF0007985CE01DF91CF910C94A712DF91CF912C
:100F00000895FC018EE392E0918380837383628372
:100F100055834483348723878FE0868380E590E080
:100F20009187808717821286089521E0FC018285CF
:100F3000811120E0822F0895DC011A962C911A97D6
:100F4000211106C0ED91FC910190F081E02D0994F2
:100F50000895FC01668385E0689FB001112480E755
:100F600097E10E94B815718760870895FC01678337
:100F70000895CF93DF931F92CDB7DEB78BB18983EE
:100F800089818F7D898389818BB980EA90E0E1DD59
:100F900089818062898389818BB96DE070E080E00E
:100FA00090E042DD0F90DF91CF910895CF93DF93D2
:100FB00000D0CDB7DEB79BB19A839A81998328E0A0
:100FC00030E0998187FF02C0986001C0977F9983C4
:100FD00099819BB9998194609BB999819BB9880F3C
:100FE0002150310971F78A818BB90F900F90DF91F1
:100FF000CF910895CF93DF931F92CDB7DEB79BB10A
:10100000998399819F7A998399819BB9CFDF0F90BA
:10101000DF91CF910895CF92DF92EF92FF920F93DD
:101020001F93CF93DF931F92CDB7DEB76C018BB1C7
:101030008983998190619BB97601062F10E0C701E1
:101040008C199D09801791072CF4F70181917F017C
:10105000ADDFF5CF0F90DF91CF911F910F91FF90F2
:10106000EF90DF90CF9008958BB1837880668BB935
:101070000895F89489E2BEDFF7DF78940895F89434
:1010800081E1B8DFF1DF78940895CF93DF931F9269
:10109000CDB7DEB780EA8983F89486E3ABDF61E001
:1010A000CE010196B8DFE0DF8AE3A4DF86E0898322
:1010B00061E0CE010196AFDFD7DF78940F90DF912A
:1010C000CF910895AF92BF92CF92DF92EF92FF92AD
:1010D0000F931F93CF93DF93CDB7DEB7A4970FB6CF
:1010E000F894DEBF0FBECDBF082F90913E031CE0E9
:1010F000919F102D112490914003990F990F990FF2
:10110000F89419829A831B82995F9C838AE272DF2A
:1011100064E0CE0101967FDFA7DF19821A831B826C
:10112000155F1C838BE266DF64E0CE01019673DFFE
:101130009BDFBE01675E7F4F802FB4DA8CE25ADFFF
:101140008E01075E1F4F7E0125E2E20EF11CD801E1
:101150009D918D0140914503509146036091470355
:1011600070914203D0904303C0904403FE01319636
:101170005F01329683E09F0121503109D50190FF34
:1011800005C04C93D9015C93608304C07C93D90162
:10119000DC92C08296958D5FB3E0AB0EB11C3396A6
:1011A0008B3149F768E1CE01019635DF0E151F0539
:1011B00071F65ADF8091400390914103019684318A
:1011C000910529F0909341038093400315C010923C
:1011D00041031092400380913E0390913F0301969A
:1011E0008A30910529F090933F0380933E0304C019
:1011F00010923F0310923E037894A4960FB6F89491
:10120000DEBF0FBECDBFDF91CF911F910F91FF9039
:10121000EF90DF90CF90BF90AF9008956F927F9244
:101220008F929F92AF92CF92DF92EF92FF920F93A5
:101230001F93CF93DF93CDB7DEB7A5970FB6F89482
:10124000DEBF0FBECDBF162FF42E442359F0909170
:101250003E032CE0929F202D112400914003000FAB
:10126000000F000FF89419820A831B82095F0C8318
:101270008AE22DA3BFDE64E0CE010196CCDEF4DE6F
:1012800019822DA12A831B82255F2C838BE2B2DE7B
:1012900064E0CE010196BFDEE7DEBE01675E7F4FF0
:1012A000812F00DA8CE2A6DE8E01075E1F4F3E0121
:1012B00085E2680E711CD8013D918D01AE014F5F32
:1012C0005F4FFE01339623E0CF010197DA0130FF33
:1012D00005C0CC92DC01DC92E08204C08C92DC017F
:1012E0009C92A08236952D5F4D5F5F4F33962B31D8
:1012F00059F768E1CE0101968EDE06151705D9F67D
:10130000B3DEFF2011F180914003909141030196DB
:101310008431910529F0909341038093400315C0D7
:10132000109241031092400380913E0390913F033D
:1013300001968A30910529F090933F0380933E03F4
:1013400004C010923F0310923E037894A5960FB606
:10135000F894DEBF0FBECDBFDF91CF911F910F91EB
:10136000FF90EF90DF90CF90AF909F908F907F9005
:101370006F9008956F927F928F92EF92FF920F93EA
:101380001F93CF93DF93CDB7DEB727970FB6F894AF
:10139000DEBF0FBECDBF60904203709043038090CC
:1013A000440310924203109243038CE4809344035D
:1013B000F89419821A821B8280EA8C838AE21ADEF0
:1013C00064E0CE01019627DE4FDE19821A821B826D
:1013D00080E88C838BE20EDE64E0CE0101961BDE9A
:1013E00043DE809142038D83809143038E838091FD
:1013F00044038F838CE2FEDD80E8E82EF12C00EAC6
:1014000010E063E0CE01059606DE01501109C9F730
:1014100081E0E81AF10899F7789410923F0310924E
:101420003E03109241031092400360924203709277
:1014300043038092440327960FB6F894DEBF0FBE95
:10144000CDBFDF91CF911F910F91FF90EF908F90C3
:101450007F906F9008950F931F93CF93DF931F9208
:10146000CDB7DEB720913D0321113FC08C018AB179
:10147000898389818C67898389818AB98BB18983C2
:1014800089818378898389818066898389818BB901
:101490008CEF80934503809346038093470310921B
:1014A0004203109243038CE480934403109241035F
:1014B0001092400310923F0310923E03C80159DD81
:1014C000C801E3DD6CE070E080E090E0ADDAC801D7
:1014D000D6DD6CE070E080E090E0A6DAC801C9DDFE
:1014E000C80148DF81E080933D030F90DF91CF91E9
:1014F0001F910F9108952F923F924F926F927F927A
:101500008F929F92AF92CF92DF92EF92FF920F93C2
:10151000CF93DF9300D000D01F92CDB7DEB73C0150
:101520001901442EE982FA820B836C837D83EC815E
:10153000FD816191FD83EC83662369F089809A8047
:10154000AB80E42C61010091400320913E0341E017
:10155000C30164DEECCF0F900F900F900F900F90AF
:10156000DF91CF910F91FF90EF90DF90CF90AF90F0
:101570009F908F907F906F904F903F902F90089505
:10158000EEE3F3E070E07183608350E053834283C5
:10159000089598DD80E090E0089524E432E0FC01B5
:1015A00031832083259A2D9A62E370E052CACF934B
:1015B000DF931F92CDB7DEB785B18983998180E231
:1015C00089278983898185B90F90DF91CF9108950B
:1015D000EECFCF93DF93CDB7DEB7AE970FB6F894CB
:1015E000DEBF0FBECDBF81E090E00E942A1787DAF0
:1015F00081E090E00E942A1794D782E090E00E9458
:101600002A17CBDF81E090E00E942A179AA789A7CA
:1016100022DF81E090E00E942A171C011CDFEED738
:1016200086E191E09093500380934F03909352038F
:1016300080935103909354038093530386E492E084
:101640000E94801887DA8AB18D8B8D8980648AB96F
:101650008BB18D8B8D898F7B8BB98BE090E00E9455
:101660002A179BA38AA348E261E0E8D68BE090E0CA
:101670000E942A1798A78FA348E263E0DFD68BE089
:1016800090E00E942A179D8F8C8F4BE267E0D6D6A0
:101690008FE090E00E942A179F8F8E8F25E244E012
:1016A00063E014D88CEA90E00E942A178A8F9B8FFF
:1016B00020E030E042E951E06E8D7F8DC3D78CEAA7
:1016C00090E00E942A178DA39EA324E230E042E915
:1016D00051E06E8D7F8DB6D742E0CE0101962C0190
:1016E000BC018A8D9B8D0E947115320110E0420170
:1016F000F40101900020E9F73197E819F909C301D5
:10170000841995098E179F0788F4F30161913F01B1
:10171000A12CB12C4CE4C42EE12C5CEFF52E00E0A2
:10172000212F40E0C10194DA105FE2CF42E0B40122
:101730008DA19EA10E947115420110E0CE0101967B
:101740003C01F30101900020E9F73197E619F70910
:10175000C401841995098E179F0790F4F4016191D3
:101760004F01A12CB12C9CE4C92E2CE7E22E3CE7C2
:10177000F32E0CE7212F44E2C1016ADA105FE1CFBA
:101780008BE590E00E942A174C01B101F5D285E06B
:1017900090E00E942A17998F888FB401FCD58DE0C4
:1017A00090E00E942A1799A388A3288D398D4FA114
:1017B00058A56AA17BA1A5DB6A8D7B8D888D998D4B
:1017C000EED560E0C4012DD362E08A8D9B8D0E942E
:1017D0004A14698B7A8B8B8B9C8B69897A898B896C
:1017E0009C89E3D9C40111D3082FC40114D3682FF5
:1017F00088A199A1AEDBC40111D3682F88A199A15A
:10180000B5DB62E0888D998DCED56A8D7B8D888D14
:10181000998DC5D540E069E0C101B2DE6091060155
:10182000709107018AE592E00E945718DA8CFB8DCF
:10183000FE8B12E0CE0101963C01C401E6D28CA3DE
:10184000013009F0F0C08111FCC0C401D5D2182FBD
:10185000C401D5D2412FB30181115AC08A8D9B8D0D
:101860000E9471155F8A4E8A30E0F30101900020DA
:10187000E9F73197E619F7098E899F898419950947
:101880008E179F07A8F4EE89FF896191FF8BEE8B7D
:10189000A12CB12C0CE4C02EE12C8CEFF82E00E032
:1018A000232F40E0C1013EA7D3D93EA5305FDDCF55
:1018B000412FB3018DA19EA10E9471155F8A4E8AAE
:1018C00030E0F30101900020E9F73197E619F709BC
:1018D0008E899F89841995098E179F07B0F4EE8928
:1018E000FF896191FF8BEE8BA12CB12CFCE4CF2EF4
:1018F000ACE7EA2EBCE7FB2E0CE7232F44E2C10144
:101900003EA7A6D93EA5305FDCCFDA8CFB8D59C04F
:101910008A8D9B8D0E9471155F8A4E8A30E0F3019B
:1019200001900020E9F73197E619F7098E899F8920
:10193000841995098E179F07B0F4EE89FF8961918C
:10194000FF8BEE8BA12CB12C5CE4C52E7CE7E72E3F
:10195000ECE7FE2E0CE7232F40E0C1013EA778D92B
:101960003EA5305FDCCF412FB3018DA19EA10E9427
:1019700071155F8A4E8A30E0F30101900020E9F78B
:101980003197E619F7098E899F89841995098E1771
:101990009F07A8F4EE89FF896191FF8BEE8BA12C44
:1019A000B12C2CE4C22EE12C4CEFF42E00E0232FBE
:1019B00044E2C1013EA74CD93EA5305FDDCFDDA09A
:1019C000FEA1FE8BC40115D2682F8D2D9E89A8D74C
:1019D000C40118D2612F811104C08D2D9E895AD760
:1019E00003C08D2D9E8979D7698B7A8B8B8B9C8BCD
:1019F00069897A898B899C89D8D8C4010CD2682FCF
:101A000088A199A1A6DAC40109D2682F88A199A159
:101A1000ADDA612F888D998DC6D46D2D7E89888D24
:101A2000998DBDD485C08CA1813071F4011112C093
:101A300029A53AA54C8D5D8D6E8D7F8DC4014AD44C
:101A400077C0FCA1F13031F09CA1992361F0913075
:101A500009F06EC029A53AA54C8D5D8D6E8D7F8DE8
:101A6000C4011FD265C08C8D9D8D45D5882389F01A
:101A70008C8D9D8D48D5823041F08C8D9D8D43D5C8
:101A8000813019F461E0C401C3D18C8D9D8D3ED5A8
:101A90004FC08E8D9F8D0E944804882309F448C052
:101AA000612F8D2D9E8949D68E8D9F8D0E94530466
:101AB000612F8D2D9E8911D7698B7A8B8B8B9C8B97
:101AC00069897A898B899C8970D8412FB3018D2DC2
:101AD0009E890E9471158D2D9E890E94A315582FF5
:101AE0005CA64BA630E0F30101900020E9F73197A6
:101AF000E619F7098BA59CA5841995098E179F07F0
:101B0000B8F4EBA5FCA56191FCA7EBA7A12CB12C27
:101B10008CE4C82EE12C9CEFF92E00E0232F452FFA
:101B2000C1013EA75DA794D83EA5305F5DA5DBCF80
:101B3000C40174D181111BC08AA19BA1DCD4811185
:101B400002C00CA17ACE8AA19BA1DDD461E08230D3
:101B500021F4888D998D2AD403C0888D998D4AD41B
:101B60008AA19BA1D3D48FA198A5D0D4EACF88A174
:101B700099A1DBD9882329F38AA19BA1BCD488230E
:101B800021F088A199A1D8D9DCCF8FA198A5B3D491
:101B90008111F7CFD6CFFC01E45BFF4F81E080835A
:101BA0000895FB01DC01480F591FA417B50719F070
:101BB00021912D93FACF08952F923F924F925F92E9
:101BC0006F927F928F929F92AF92BF92CF92DF924D
:101BD000EF92FF920F931F93CF93DF93CDB7DEB7B2
:101BE00061970FB6F894DEBF0FBECDBF6C014B01FD
:101BF0005C018BE4A80EB11CD5011C9210E050E0F2
:101C00001601B5E52B0E311C2601E2E54E0E511CE6
:101C1000CE0101963C01D5018C91863009F492C029
:101C2000F6019BE0989FE00DF11D1124448562852B
:101C3000C401598BA5DCD101ED90FD900C91F2010E
:101C4000208131814281D5018C91F601BBE0B89FA2
:101C5000E00DF11D112466857785C4014CDCF5018A
:101C60008081F6019BE0989FE00DF11D11244289CF
:101C70006089C40185DCD5018C915989823031F1AC
:101C800070F48823D1F0813009F049C0D601139651
:101C9000EC91F0E0EE0FFF1FE058FE4F3EC08430A5
:101CA00039F1E8F08530D9F5D6011596EC91F0E0E0
:101CB000EE0FFF1FE459FE4F30C0D6011296EC9193
:101CC000F0E0EE0FFF1FEA58FE4F27C0D601149632
:101CD000EC91F0E0EE0FFF1FE059FE4F1EC0D60161
:101CE0001796EC91F0E0EE0FFF1FEA59FE4F15C07A
:101CF000F60180851F928F93A0E6B2E0BF93AF9369
:101D00007F926F920E94B0180F900F900F900F90DB
:101D10000F900F90162D572D02C010815181F101A7
:101D2000E080F1800281D2012D913D914C91612F93
:101D3000752FC401598BDFDBF50180818F5F8083B4
:101D4000598969CF1C9261960FB6F894DEBF0FBE19
:101D5000CDBFDF91CF911F910F91FF90EF90DF905A
:101D6000CF90BF90AF909F908F907F906F905F903B
:101D70004F903F902F9008950F931F93CF93DF9331
:101D8000EC018B018CED92E09983888381E08A835A
:101D900082E08B831C821D821E821F8282E18887E3
:101DA000FE01E45BFF4F10823496718360833896A6
:101DB0001082319610823196108238978CEF808392
:101DC00031968083319680833196108231961082CD
:101DD00031968CE4808342E450E064E271E0CE010D
:101DE0000996DFDEB801CE01DF91CF911F910F91EF
:101DF000E3CEFC0182810895FC0183810895FC01FA
:101E000084810895FC0185810895FC0186810895EF
:101E1000FC0166830895FC0180850895FC0187819B
:101E20000895AF92BF92CF92DF92EF92FF920F93FD
:101E3000CF93DF93EC016D83E62FF0E0EE0FFF1FF1
:101E4000E459FE4FA080B180DE01A75BBF4FFE01C9
:101E5000E95BFF4F6E0180E5C80ED11C4C9160819B
:101E6000F601808191818CDB8D81811103C020E09E
:101E70003CEF02C02CEF30E0CB5ADF4FE880F98016
:101E80000A8140E0B501F6018081918134DBDF9168
:101E9000CF910F91FF90EF90DF90CF90BF90AF90D8
:101EA00008952F923F924F925F926F927F928F92FE
:101EB0009F92AF92BF92CF92DF92EF92FF920F93D9
:101EC0001F93CF93DF93CDB7DEB761970FB6F8942A
:101ED000DEBF0FBECDBF6C015B013A0149011C01A1
:101EE00088E5280E311C8CEFD1018C93F601E75A5E
:101EF000FF4F1082319610822601BCE44B0E511C1C
:101F0000F2018081882389F110827601FBE4EF0ED3
:101F1000F11CD7018C911BE0F601189FE00DF11D1B
:101F2000112444856285C9012BDBF601EB5AFF4F72
:101F300080819181A2813397208131814281F70193
:101F40005081F601159FE00DF11D112466857785FE
:101F50007C010A2FC401CFDA81E0F601E15BFF4F7B
:101F6000808364E0C5010E946204C301C4D2882357
:101F700009F479C0C301C7D2823079F4C301C6D253
:101F800068EC70E0C6010E944E05F601E35BFF4F6E
:101F900091838083D2011C9266C0C301B4D2813088
:101FA00009F061C0C301B2D2F601E15BFF4F80814D
:101FB000882321F01082F601168273C1F601E35BDB
:101FC000FF4F808191810E9472053601FBE46F0E04
:101FD000711CD3018C911BE0F601189FE00DF11DDF
:101FE000112444856285C401CBDA2601B5E54B0E88
:101FF000511CF201E080F180028133972081318110
:102000004281D3018C91F601189FE00DF11D11243E
:1020100066857785C4016FDAF30180818F5F863032
:1020200011F0808301C01082F30180811BE0F60172
:10203000189FE00DF11D112444856285C401A0DACA
:10204000D201ED90FD900C91F1012081318142810E
:10205000D3018C91F601189FE00DF11D11246685C6
:102060007785C40148DAC5010E944804882309F431
:1020700018C13601BBE46B0E711CF3018081823004
:1020800009F45EC028F4882361F08130A1F1E9C031
:10209000843009F499C008F475C0853009F4C7C0CC
:1020A000E0C0C5010E945004813051F4D60112965F
:1020B0008C9112978F5F853079F4F601128212C0ED
:1020C000C5010E945004823069F4D60112968C91A9
:1020D0001297811104C084E012968C9303C0815042
:1020E000F6018283D6011296EC91F0E0EE0FFF1F0D
:1020F000EA58FE4F22C0C5010E945004813039F4D5
:10210000F60183818F5F893061F413820EC0C501AF
:102110000E945004823049F4F6018381811103C08A
:1021200088E0838302C081508383D6011396EC91AB
:10213000F0E0EE0FFF1FE058FE4F5080718193C01A
:10214000C5010E945004813039F4F60184818F5F0B
:10215000833059F414820DC0C5010E9450048230AE
:1021600041F4F6019481911102C0848302C0915020
:102170009483D6011496EC91F0E0EE0FFF1FE05926
:10218000FE4FDBCFC5010E945004813039F4F601C7
:1021900087818F5F833059F417820DC0C5010E947B
:1021A0005004823041F4F6019781911102C0878377
:1021B00002C091509783D6011796EC91F0E0EE0F94
:1021C000FF1FEA59FE4FB9CFC5010E94500481306C
:1021D00039F4F60180858F5F8A3160F089E10DC0A6
:1021E000C5010E945004823059F4F6018085815067
:1021F000853010F0808704C085E0D60118968C9356
:10220000F60180851F928F9383E692E09F938F93D0
:102210008E010F5F1F4F1F930F93A2D70F900F9048
:102220000F900F900F900F90502E712F1CC0C50172
:102230000E945004882361F0D60115968C91159761
:10224000811104C081E015968C9302C0F6011582BD
:10225000D6011596EC91F0E0EE0FFF1FE459FE4F0A
:102260006CCF512C70E0C501798B0E945304F301AF
:102270008081F6019BE0899FE00DF11D11244289C8
:102280006089C4017DD9F601EB5AFF4FE080F180EF
:1022900002813397208131814281652D7989C40182
:1022A0002AD961960FB6F894DEBF0FBECDBFDF917D
:1022B000CF911F910F91FF90EF90DF90CF90BF9043
:1022C000AF909F908F907F906F905F904F903F90D6
:1022D0002F9008954F925F926F927F928F929F926C
:1022E000AF92BF92CF92DF92EF92FF920F931F9324
:1022F000CF93DF93EC015B014A0169013C018BE460
:10230000680E711CF30180811BE0FE01189FE00D37
:10231000F11D1124628544852E01F8E54F0E511CF4
:102320008CEFF20180833196108231961082C901C0
:1023300027D9FE01EB5AFF4FE080F1800281F201C4
:10234000208131814281F3018081FE01189FE00DDF
:10235000F11D112466857785C601CDD861E0C501E0
:102360000E946204FE01E15BFF4F10829601A4010E
:10237000B501CE01DF91CF911F910F91FF90EF90AA
:10238000DF90CF90BF90AF909F908F907F906F9095
:102390005F904F9086CDFC01718360830895FC01AE
:1023A000738362830895FC0164830895FF920F9301
:1023B0001F93CF93DF931F92CDB7DEB78C01F62E1C
:1023C000FC0164818281938188D20E94D5058BB102
:1023D0008983898180648BB9FF2029F061E0F8014D
:1023E000808191811EDD0F90DF91CF911F910F9120
:1023F000FF900895FF920F931F93CF93DF931F9247
:10240000CDB7DEB78C01F62EFC0164818281938109
:1024100041D20E94D5058BB1898389818F7B8BB98D
:10242000FF2029F060E0F80180819181FADC0F90B3
:10243000DF91CF911F910F91FF900895FC0182EEE3
:1024400092E09183808381E090E0062E01C0880FA6
:102450000A94EAF7A42FB0E0B483A3839D0122502D
:102460003109368325831197B087A78362839C91B6
:10247000282F209592239C93A381B4819C91982B23
:102480009C93A581B6819C91892311F0118602C08D
:1024900082E08187128661E070E0CF010C9429050B
:1024A000FC01A581B6812C9181E090E0028002C000
:1024B000880F991F0A94E2F782239185913051F099
:1024C00028F0923061F0933079F00895811111C0B5
:1024D00081E008C081110DC082E0818709C0882396
:1024E00041F083E081870895882319F0118681E007
:1024F00082870895D5CF21E0FC018285811101C03A
:1025000020E0822F0895FC0182850895FC01128647
:102510000895FC019185925081E0923008F080E0AE
:10252000089580914A03811111C01092800088E0C3
:102530008093810010928200109285001092840096
:1025400082E080936F0081E080934A030895AC019C
:102550009B01A8EEB3E042D3DC01CB0126E0B695A7
:10256000A795979587952A95D1F75093490340935E
:1025700048032DE020938100109285001092840082
:10258000909389008093880082E080936F00089583
:1025900088E08093810010926F00809148039091B1
:1025A0004903009739F0DC01ED91FC910190F08135
:1025B000E02D099408951F920F920FB60F921124E7
:1025C0002F933F934F935F936F937F938F939F933B
:1025D000AF93BF93EF93FF93DBDFFF91EF91BF9139
:1025E000AF919F918F917F916F915F914F913F91AB
:1025F0002F910F900FBE0F901F9018951092C5004D
:1026000088E08093C40088E18093C1008EE08093CD
:10261000C20008958091C00087FFFCCF8091C60062
:1026200090E00895CF93C82F8A3011F48DE0FADF3F
:102630008091C00085FFFCCFC093C60080E090E091
:10264000CF9108958F929F92AF92BF92CF92DF92D7
:10265000EF92FF920F931F93CF93DF93FA01DC0168
:102660004F5E5F4F5C0111E1A10EB11C4F01C2EA48
:102670008C0E911CC080D180E280F380CD92DD92DF
:10268000ED92FC921397C480D580E680F780149673
:10269000CD92DD92ED92FC9217977A01D9E0ED1A76
:1026A000F108E701D8807501D9E0ED1AF108E701DA
:1026B000D882C184D284E384F4841996CD92DD92C9
:1026C000ED92FC921C97C584D684E784F0881D9611
:1026D000CD92DD92ED92FC925097EA01F880E501EF
:1026E000F882729652964E5E5F4FD2E1AD0EB11CEB
:1026F000E815F90509F0BECFFC01E955FF4F7183DC
:102700006083359744E650E060E070E04083518399
:1027100062837383349641E0408333963183208310
:10272000DF91CF911F910F91FF90EF90DF90CF90AD
:10273000BF90AF909F908F900895AF92BF92CF922D
:10274000DF92EF92FF920F931F93CF93DF9300D00E
:1027500000D0CDB7DEB75C01162F7C0127EAE20E70
:10276000F11CF701808191810E944804882309F4BB
:1027700082C0F701808191810E9450048230E1F58E
:10278000F501EE55FF4F2081318142815381F701E0
:102790008081918129833A834B835C830E945C040E
:1027A000DC01119629813A814B815C8130D2F5019F
:1027B00022E1129FE00DF11D1124C080D180E28042
:1027C000F380C61AD70AE80AF90AC082D182E282E7
:1027D000F382F50122E1129FE00DF11D1124018524
:1027E00012852385348568017901C61AD70AE80A5B
:1027F000F90AD701C6013BC08130E9F5F501EE5574
:10280000FF4F2081318142815381F7018081918185
:1028100029833A834B835C830E945604DC01119622
:1028200029813A814B815C81F2D1F50122E1129F2D
:10283000E00DF11D1124C080D180E280F380C60E2E
:10284000D71EE81EF91EC082D182E282F382F50112
:1028500022E1129FE00DF11D1124018512852385CF
:102860003485DC01CB01800F911FA21FB31F81872C
:102870009287A387B4870F900F900F900F90DF91EE
:10288000CF911F910F91FF90EF90DF90CF90BF906D
:10289000AF9008950F931F93FC0102E1609FE00D3C
:1028A000F11D112480819181A281B38144815581E0
:1028B000668177818C019D01040F151F261F371F2C
:1028C000C901B801208530E040E050E065D1CA017F
:1028D000B901CFD11F910F9108950F931F93FC0160
:1028E00002E1609FE00DF11D112481859285A38591
:1028F000B48545855685678570898C019D01040FD7
:10290000151F261F371FC901B801218930E040E09B
:1029100050E042D1CA01B901ACD11F910F91089585
:10292000FC01EA55FF4F6083DC01AE55BF4F84E0E8
:10293000689FF0011124EC51FD4F4081518162816B
:1029400073814D935D936D937C9313970895CF920C
:10295000DF92EF92FF92CF93DF936A017B01E9014F
:10296000CB01BA0120E031EE45EF55E015D180E30F
:10297000820F888360E071EE85EF95E0EAD0C61A99
:10298000D70AE80AF90AC701B60120E836E948E99A
:1029900050E002D180E3820F898360E876E988E91C
:1029A00090E0D7D0C61AD70AE80AF90AC701B601DB
:1029B00020E432E44FE050E0EFD080E3820F8A83DE
:1029C00060E472E48FE090E0C4D0C61AD70AE80A47
:1029D000F90AC701B60120EA36E841E050E0DCD050
:1029E00080E3820F8B8360EA76E881E090E0B1D0EB
:1029F000C61AD70AE80AF90AC701B60120E137E288
:102A000040E050E0C9D080E3820F8C83A0E1B7E2C0
:102A1000F4D0C61AD70AE80AF90AC701B60128EEA7
:102A200033E040E050E0B8D080E3820F8D83A8EE21
:102A3000B3E0E3D0C61AD70AE80AF90AC701B6011B
:102A400024E630E040E050E0A7D080E3820F8E83A0
:102A5000A4E6B0E0D2D0C61AD70AE80AF90AC7013C
:102A6000B6012AE030E040E050E096D080E3820FEB
:102A70008F83AAE0B0E0C1D0A7019601261B370BD7
:102A8000480B590BDA01C901805D88871986DF91EF
:102A9000CF91FF90EF90DF90CF900895FA01DB0186
:102AA00080E090E020E030E05EE22115310559F051
:102AB0008630910519F08330910511F450833196D9
:102AC0002C91208304C04C91403321F040833196F7
:102AD00021E030E0019611968930910531F710829E
:102AE0000895EF92FF920F931F93CF93DF93CDB78B
:102AF000DEB760970FB6F894DEBF0FBECDBF8C0176
:102B00007B01FC0182E1489FE00DF11D112441850C
:102B10005285638574859E012F5F3F4FC80117DF83
:102B2000A701BE016F5F7F4FC801B8DF60960FB687
:102B3000F894DEBF0FBECDBFDF91CF911F910F91F3
:102B4000FF90EF900895FC01E755FF4F8081918140
:102B50000895DB018F939F9350D0BF91AF91A29FB7
:102B6000800D911DA39F900DB29F900D112408958B
:102B7000AA1BBB1B51E107C0AA1FBB1FA617B707A3
:102B800010F0A61BB70B881F991F5A95A9F78095BF
:102B90009095BC01CD010895A1E21A2EAA1BBB1B82
:102BA000FD010DC0AA1FBB1FEE1FFF1FA217B30719
:102BB000E407F50720F0A21BB30BE40BF50B661F2F
:102BC000771F881F991F1A9469F7609570958095F3
:102BD00090959B01AC01BD01CF010895A29FB0016A
:102BE000B39FC001A39F700D811D1124911DB29F41
:102BF000700D811D1124911D0895F0DFA59F900D8A
:102C0000B49F900DA49F800D911D11240895B7FFCE
:102C1000F4CFF3DF821B930B089570D088F09F5799
:102C200090F0B92F9927B751A0F0D1F0660F771F18
:102C3000881F991F1AF0BA95C9F712C0B13081F0F8
:102C400077D0B1E0089574C0672F782F8827B85FD8
:102C500039F0B93FCCF3869577956795B395D9F759
:102C60003EF490958095709561957F4F8F4F9F4F63
:102C70000895E89409C097FB3EF49095809570956F
:102C800061957F4F8F4F9F4F9923A9F0F92F96E9B8
:102C9000BB279395F695879577956795B795F1112D
:102CA000F8CFFAF4BB0F11F460FF1BC06F5F7F4FCA
:102CB0008F4F9F4F16C0882311F096E911C07723DC
:102CC00021F09EE8872F762F05C0662371F096E8E5
:102CD000862F70E060E02AF09A95660F771F881FB4
:102CE000DAF7880F9695879597F9089557FD9058CC
:102CF000440F551F59F05F3F71F04795880F97FBC0
:102D0000991F61F09F3F79F0879508951216130679
:102D10001406551FF2CF4695F1DF08C016161706A8
:102D20001806991FF1CF86957105610508940895DD
:102D3000E894BB2766277727CB0197F908950BD036
:102D400078C069D028F06ED018F0952309F05AC0E9
:102D50005FC01124EECFCADFA0F3959FD1F3950F8A
:102D600050E0551F629FF001729FBB27F00DB11D0F
:102D7000639FAA27F00DB11DAA1F649F6627B00D9F
:102D8000A11D661F829F2227B00DA11D621F739F88
:102D9000B00DA11D621F839FA00D611D221F749F96
:102DA0003327A00D611D231F849F600D211D822FDD
:102DB000762F6A2F11249F5750408AF0E1F0882324
:102DC0004AF0EE0FFF1FBB1F661F771F881F915031
:102DD0005040A9F79E3F510570F014C0AACF5F3F45
:102DE000ECF3983EDCF3869577956795B795F79564
:102DF000E7959F5FC1F7FE2B880F911D96958795EC
:102E000097F9089597F99F6780E870E060E008956A
:102E10009FEF80EC089500240A94161617061806F2
:102E20000906089500240A941216130614060506CE
:102E30000895092E0394000C11F4882352F0BB0F5F
:102E400040F4BF2B11F460FF04C06F5F7F4F8F4FC2
:102E50009F4F0895CF93DF938230910510F482E065
:102E600090E0E0914D03F0914E0320E030E0C0E0AF
:102E7000D0E0309711F14081518148175907C0F0D7
:102E80004817590761F482819381209719F09B8339
:102E90008A832BC090934E0380934D0326C0211547
:102EA000310519F04217530718F49A01BE01DF01EA
:102EB000EF010280F381E02DDCCF2115310509F10E
:102EC000281B390B2430310590F412968D919C917A
:102ED00013976115710521F0FB019383828304C070
:102EE00090934E0380934D03FD01329644C0FD0143
:102EF000E20FF31F81939193225031092D933C935C
:102F00003AC020914B0330914C03232B41F4209184
:102F100002013091030130934C0320934B03209125
:102F20000001309101012115310541F42DB73EB763
:102F30004091040150910501241B350BE0914B0396
:102F4000F0914C03E217F307A0F42E1B3F0B281758
:102F5000390778F0AC014E5F5F4F2417350748F012
:102F60004E0F5F1F50934C0340934B0381939193FB
:102F700002C0E0E0F0E0CF01DF91CF9108950F9320
:102F80001F93CF93DF93009709F48CC0FC01329715
:102F90001382128200914D0310914E030115110509
:102FA00081F420813181820F931F20914B03309156
:102FB0004C032817390779F5F0934C03E0934B0342
:102FC00071C0D80140E050E0AE17BF0750F4129630
:102FD0002D913C911397AD012115310509F1D901CE
:102FE000F3CF9D01DA013383228360817181860FE3
:102FF000971F8217930769F4EC0128813981260F06
:10300000371F2E5F3F4F318320838A819B819383BB
:103010008283452B29F4F0934E03E0934D0342C085
:103020001396FC93EE931297ED01499159919E01ED
:10303000240F351FE217F30771F480819181840F0B
:10304000951F029611969C938E938281938113967D
:103050009C938E931297E0E0F0E0D80112968D9148
:103060009C911397009719F0F8018C01F6CF8D9180
:103070009C9198012E5F3F4F820F931F20914B032D
:1030800030914C032817390769F4309729F41092CE
:103090004E0310924D0302C01382128210934C0310
:1030A00000934B03DF91CF911F910F910895EF9201
:1030B000FF920F931F93CF93DF93DB0113962C9115
:1030C00021FF18C08B017C01D0E0C0E0F7018191A5
:1030D0007F01882361F0D8011896ED91FC91199732
:1030E000B8010995892B91F3DFEFCFEFEFCF8D2F4B
:1030F0009C2F02C08FEF9FEFCDB7DEB7E6E0E7C2AF
:103100000F931F93CF93DF93E0915103F0915203FC
:10311000238121FF1BC08C01D0E0C0E0F801819128
:103120008F016091510370915203DB011896ED916C
:10313000FC911997882331F00995892B79F3DFEFFA
:10314000CFEFECCF8AE00995892B19F08FEF9FEF35
:1031500002C08D2F9C2FDF91CF911F910F91089569
:10316000AEE0B0E0E5EBF8E198C20D891E8986E09B
:103170008C831A8309838FEF9FE79E838D83AE0133
:10318000475E5F4F6F89788DCE01019609D02F8100
:103190003885F801E20FF31F10822E96E4E099C201
:1031A000ACE0B0E0E5EDF8E16AC27C016B018A01B8
:1031B000FC0117821682838181FFB0C1CE01019686
:1031C0004C01F7019381F60193FD859193FF819165
:1031D0006F01882309F49EC1853239F493FD8591EE
:1031E00093FF81916F01853221F4B70190E0B1D155
:1031F000E8CF512C312C20E02032A0F48B3269F042
:1032000030F4803259F0833269F420612CC08D3261
:1032100039F0803339F4216026C02260246023C055
:10322000286021C027FD27C030ED380F3A3078F4F0
:1032300026FF06C0FAE05F9E300D1124532E13C006
:103240008AE0389E300D1124332E20620CC08E325D
:1032500021F426FD5FC1206406C08C3611F420687D
:1032600002C0883641F4F60193FD859193FF819168
:103270006F018111C1CF982F9F7D9554933028F411
:103280000C5F1F4FFFE3F9830DC0833631F08337A6
:1032900071F0833509F057C021C0F801808189831E
:1032A0000E5F1F4F44244394512C540114C0380125
:1032B000F2E06F0E711CF801A080B18026FF03C000
:1032C000652D70E002C06FEF7FEFC5012C8736D10E
:1032D0002C0183012C852F77222E16C03801F2E0B5
:1032E0006F0E711CF801A080B18026FF03C0652D10
:1032F00070E002C06FEF7FEFC5012C8714D12C0165
:103300002C852068222E830123FC19C0832D90E098
:1033100048165906A0F4B70180E290E01AD13A9419
:10332000F5CFF50127FC859127FE81915F01B7015B
:1033300090E00FD131103A94F1E04F1A5108411446
:10334000510479F7DEC0843611F0893631F5F80181
:1033500027FF07C060817181828193810C5F1F4FBD
:1033600008C060817181072E000C880B990B0E5FDD
:103370001F4F2F76722E97FF09C0909580957095FC
:1033800061957F4F8F4F9F4F2068722E2AE030E06B
:10339000A40117D1A82EA81843C0853729F42F7E81
:1033A000B22E2AE030E025C0F22FF97FBF2E8F36F3
:1033B000C1F018F4883579F0ADC0803719F088373E
:1033C00021F0A8C02F2F2061B22EB4FE0DC08B2D8E
:1033D0008460B82E09C024FF0AC09F2F9660B92EC2
:1033E00006C028E030E005C020E130E002C020E166
:1033F00032E0F801B7FE07C060817181828193815C
:103400000C5F1F4F06C06081718180E090E00E5F0D
:103410001F4FA401D6D0A82EA818FB2DFF777F2E12
:1034200076FE0BC0372D3E7FA51450F474FE0AC003
:1034300072FC08C0372D3E7E05C0BA2C372D03C064
:10344000BA2C01C0B52C34FF0DC0FE01EA0DF11DF0
:103450008081803311F4397E09C032FF06C0B394F5
:10346000B39404C0832F867809F0B39433FD12C05F
:1034700030FF06C05A2CB31418F4530C5B18B32C4D
:10348000B31460F4B70180E290E03C8762D0B3945B
:103490003C85F6CFB31410F43B1801C0312C34FF37
:1034A00011C0B70180E390E03C8753D03C8532FFE8
:1034B00016C031FD03C088E790E002C088E590E0C7
:1034C000B7010CC0832F867851F031FF02C08BE228
:1034D00001C080E237FD8DE2B70190E03AD0A5143B
:1034E00030F4B70180E390E034D05A94F8CFAA9436
:1034F000F401EA0DF11D8081B70190E02AD0A110FE
:10350000F6CF332009F45DCEB70180E290E021D000
:103510003A94F7CFF7018681978102C08FEF9FEF32
:103520002C96E2E1C8C0FC0105906150704001108A
:10353000D8F7809590958E0F9F1F0895FC016150DC
:10354000704001900110D8F7809590958E0F9F1FC5
:1035500008950F931F93CF93DF93FB01238121FDE8
:1035600003C08FEF9FEF28C022FF16C0468157810E
:10357000248135814217530744F4A081B1819D0114
:103580002F5F3F4F318320838C93268137812F5FBC
:103590003F4F3783268310C0EB01092F182F00847B
:1035A000F185E02D0995892BE1F68E819F810196A9
:1035B0009F838E83812F902FDF91CF911F910F9149
:1035C0000895FA01AA27283051F1203181F1E894B9
:1035D0006F936E7F6E5F7F4F8F4F9F4FAF4FB1E006
:1035E0003ED0B4E03CD0670F781F891F9A1FA11D01
:1035F000680F791F8A1F911DA11D6A0F711D811D02
:10360000911DA11D20D009F468943F912AE0269FC6
:1036100011243019305D3193DEF6CF010895462F25
:103620004770405D4193B3E00FD0C9F7F6CF462F06
:103630004F70405D4A3318F0495D31FD405241936F
:1036400002D0A9F7EACFB4E0A6959795879577952C
:103650006795BA95C9F700976105710508959B01B3
:10366000AC010A2E06945795479537952795BA953C
:10367000C9F7620F731F841F951FA01D08952F9215
:103680003F924F925F926F927F928F929F92AF92F2
:10369000BF92CF92DF92EF92FF920F931F93CF933F
:1036A000DF93CDB7DEB7CA1BDB0B0FB6F894DEBFD6
:1036B0000FBECDBF09942A88398848885F846E84FC
:1036C0007D848C849B84AA84B984C884DF80EE8046
:1036D000FD800C811B81AA81B981CE0FD11D0FB64F
:1036E000F894DEBF0FBECDBFED010895F894FFCF73
:1036F00000005503800008010000000200000000E7
:10370000C90A0000000000000003000000001213BE
:103710000A13000000060000006702060005000111
:1037200006000C006D020600110002070000007385
:1037300002070004000307000700780207000A00E0
:103740000407000E007C02070012000508000000BC
:1037500081020800050087028A028D02900294020D
:1037600098029C02A002A402A802AC02B002B40219
:10377000B802BC02C002C402C802CC02D002D40209
:10378000A40240771B006079FEFF0140771B000018
:1037900000000001E06735006079FEFF01E0673559
:1037A000000000000001C0CF6A006079FEFF01C088
:1037B000CF6A000000000001809698006079FEFF4B
:1037C00001809698000000000001809FD500C0F2A3
:1037D000FCFF02809FD500000000000220B2130110
:1037E000C0F2FCFF0220B213010000000002406F93
:1037F0004001206CFBFF03406F400100000000030C
:1038000090CA7B01206CFBFF0390CA7B0100000083
:103810000003003FAB0180E5F9FF04003FAB01006E
:103820000000000400000000470400000000C30680
:1038300000000000E80A6D61696E3A2053746172FD
:1038400074696E67206C6F6F70004141364451009F
:103850002564002532690053544550200042414EF2
:1038600044200056464F20004B592000535044201E
:10387000004D4F444520005354004247005044003F
:10388000525820005458200041202000422020009F
:10389000535020003130200031303000314B2000B7
:1038A00031304B00314D20003136300038302000AF
:1038B00034302000333020003230200031372000F7
:1038C000313520003132200000000000CB0D000017
:1038D00000007A120A00000064000000E803000003
:0C38E00010270000A086010040420F00ED
:00000001FF
